:020000040800F2
:08000000000C00202903000898
:1000080030B5802406230020064A07496402013BD4
:10001800002B00D130BD5160906015682542FCD09E
:10002800F5E7C04610E000E0BF5D0000F0B5002134
:1000380060257C260220114B8446CA5C0823104F99
:100048006446B8682042FBD050B20E4C002813DA40
:100058002670013B5200DBB2D2B2002BF0D1013145
:100068001829E7D1084A09495160936080235B0247
:1000780011681942FCD0F0BD2570EAE704000020A1
:10008800003001400C30014010E000E0571A000039
:100098000022F0B52549264B0D7826491A700C78B0
:1000A8002549264B087811001B78254E062A0CD1C5
:1000B800002909D021490B701C4B1D701D4B1C7069
:1000C8001D4B18701A4B1A70F0BD25214B43113384
:1000D800BD31DBB2C81A0021884202DB1E39C91AB9
:1000E800C9B218484900455C79218446C81A0021DC
:1000F800884200DBC1B260464900445C23200021ED
:10010800C01A884200DBC1B2604603274900405C40
:10011800317801324F43BC460B49D2B261440C706E
:100128004D70887001360121C0E7C0461F000020CD
:100138001C0000201E0000201D00002000000020E0
:100148009C0E0008A40E000804000020F7B500214A
:10015800071C00F05BFB2F49041C00F03BF9FE2351
:10016800051E0AD10021201C00F020F92B000028D0
:1001780003D1201C00F042F9C3B26A46264D5B0049
:10018800EB5C244901931279244B201C1A7000F06F
:1001980021F9FE23061E0AD10021201C00F006F9D1
:1001A8003300002803D1201C00F028F9C3B25B00FB
:1001B800EE5C1B4B1B491E70381C00F027FB1549D1
:1001C800041C00F007F9FE23071E0AD10021201C99
:1001D80000F0ECF83B00002803D1201C00F00EF9D9
:1001E800C3B25B00E85C002203250F4B0F49104C9B
:1001F80018706F460B783F796B430132E318D2B21F
:100208001E705F7098700131012AF2D00222094BEA
:100218001A70F7BD00007E43A40E00081F000020DE
:100228001E00002000007F431D000020A20E0008D1
:10023800040000201C0000200123334A10B5516B34
:10024800C0200B435363A023DB05196881430800D2
:100258008021014308201960596881435960196A4F
:100268002A480840A0210902014319628023116C21
:100278005B010B431364264A264B1A6000231900BE
:10028800254A99540133182BFBD1FFF7CFFE0024E0
:10029800200000F097FD0134204900F0C7F8E4B2CF
:1002A800FFF754FFFFF7F4FEFFF7C0FEFFF7A8FEC5
:1002B800FF2CEDD1013CFFF7EBFEFFF7B7FEFFF790
:1002C8009FFE002CF6D1200000F07CFD134900F0C1
:1002D800ADF8011CFE200134800500F0B7FBE4B244
:1002E800FFF734FFFFF7D4FEFFF7A0FEFFF788FE05
:1002F800FF2CE8D1013CFFF7CBFEFFF797FEFFF795
:100308007FFE002CF6D1C2E700100240FF0FFFFF6E
:100318004CC30000003001400400002000007F436F
:10032800184885460F4B104A10489A600023104918
:10033800104C1A188A4211D30F4B104918688023A1
:100348004A681B02120C12040343134305224B6034
:100358000B4B1A6023234B63FFF76EFFE5580433FA
:100368001560E6E700ED00E000000008000000204E
:100378000400002064110008100FFF1F0010024045
:1003880010E000E0000C00208446081C6146FFE7EE
:100398001FB500F0F9F9002801D40021C8421FBD9B
:1003A80010B500F08BF94042013010BD10B500F0D7
:1003B800EBF9002801DB002010BD012010BDC0466C
:1003C80010B500F0E1F9002801DD002010BD012082
:1003D80010BDC04610B500F097F9002801DC0020D8
:1003E80010BD012010BDC04610B500F08DF90028E1
:1003F80001DA002010BD012010BDC0469E2110B5B5
:10040800C905041CFFF7F0FF002803D1201C00F0E9
:10041800B9FC10BD9E21201CC90500F017FB00F097
:10042800B1FC80231B069C466044F2E7F0B55746B2
:100438004E46DE464546E0B544024300C60F83B04B
:100448000F1C640A1B0EB24653D0FF2B27D0802204
:10045800E400D20414437F22524290469844002379
:1004680099469B467D027800FB0F6D0A000E0093AB
:1004780024D0FF2846D080230021ED00DB041D4353
:100488007F384746381A4F460F43BF00B9463300F6
:10049800009A874F53404A46BA5801939746002C12
:1004A8004ED108239946F7339846FD3B9B467D027B
:1004B8007800FB0F6D0A000E0093DAD1002D26D1CB
:1004C800002001213300009A7A4F53404246101A07
:1004D8004A460A439200BA581D009746009B2C00D2
:1004E8009A468B465B46022B31D15346FF210024A6
:1004F80038E0002C17D1042399460023984601338D
:100508009B46AFE7FF20002D0BD10221DAE7280038
:1005180000F09EFC431F9D4076235B42181A002181
:10052800AFE70321ADE7200000F092FC431F9C4099
:1005380076235B421B1A9846002399469B4691E70F
:100548000C239946F3339846FC3B9B468AE7032BDA
:1005580000D1A5E05546012B00D081E00123002100
:1005680000242B406402C905600ADB0708431843CE
:1005780003B03CBC90469946A246AB46F0BD8024E9
:100588000023E403FF21EDE7FF210024EAE701232C
:10059800591A1B2966DD019A134000210024E1E75E
:1005A8008023DB031C4238D01D4251D01C43640217
:1005B800640A3300FF21D5E763016C01A3423BD2F3
:1005C8001B260021013801251F0049005B00002F70
:1005D80001DB9C4201D81B1B2943013E002EF3D1AD
:1005E8001C00631E9C410C4301007F310029CEDDB5
:1005F800630704D00F232340042B00D004342301C5
:1006080003D501002C4B80311C40FE290DDD012350
:10061800019AFF2113400024A4E78023DB031C4335
:100628006402640A3300FF219CE70123019AA401B4
:10063800640AC9B2134095E71B1B1A260121C2E7B9
:10064800009B8B469A4600244CE76302E5D50025BB
:100658008024E4032C436402640A009BFF2181E7A1
:100668000195C1E723002020CB40411A8C40611E30
:100678008C411C43630704D00F232340042B00D074
:100688000434630105D50123019A01211340002494
:1006980068E70123019AA401640A1340002161E775
:1006A8008023DB031C436402640A5346FF2159E795
:1006B800A4100008E4100008FFFFFFF770B542001F
:1006C80045024E024C00C30F6D0A120E760A240E24
:1006D800C90F0120FF2A06D0FF2C03D0A24201D166
:1006E800B54206D070BD002DFCD1FF2CFAD1002EEA
:1006F800F8D18B4206D00120002AF3D12800451EEC
:10070800A841EFE70020EDE7F0B5420045024C02B2
:10071800C30F48006D0A120E640A000EC90FFF2AA3
:100728001ED0FF2821D0002A0AD16E426E41F6B2AF
:1007380000280FD1002C0DD10020002D09D005E094
:10074800002801D1002C01D08B4211D00121584240
:100758000843F0BD002EF7D0012001390843F8E71F
:10076800002DDED002204042F3E7002CDBD0F9E771
:100778008242EBDC04DBA542E8D80020A542E8D29F
:100788000121581E0843E4E7F0B542004D024C0031
:100798004602760A120EC30F6D0A240EC90FFF2AED
:1007A80016D0FF2C18D0002A0AD170427041C0B26E
:1007B800002C15D0002805D0012001390843F0BDD0
:1007C800002C13D0994214D001205B421843F6E75D
:1007D8000220002EF3D1E4E70220002DEFD1E2E75A
:1007E800002DE7D10020002EE9D0EDE7002DE9D15A
:1007F800EAE7A24206DCDFDBAE4203D80020AE42C5
:10080800DAD3DCE7012049420843D8E7F8B5574670
:100818004E464546DE46E0B54702460088467F0A12
:10082800360EC40F002E47D0FF2E24D0FB008027A1
:10083800FF041F43002399469A467F3E43465D02C4
:100848005800DB0F6D0A000E984643D0FF283BD0B6
:10085800EB0080250022ED041D437F383618731CF9
:1008680041469B464B46614013430F2B64D875485D
:100878009B00C3589F46002F42D108239946063B48
:10088800FF269A46DAE74146022A28D0032A00D1F1
:10089800CEE0012A00D0ACE0114000200022CCB20A
:1008A8004002D205400AE407104320433CBC90466E
:1008B8009946A246AB46F8BD002F15D104239946A8
:1008C800033B00269A46B9E7FF200222002DC5D037
:1008D8000322C3E7002D19D100200122BEE701241D
:1008E800FF220C400020DBE7380000F0B1FA762642
:1008F800431F9F4000237642361A99469A469DE741
:100908000C239946093BFF269A4697E7280000F0F2
:100918009FFA431F9D4076235B42181A00229DE7E9
:1009280080200024C003FF22BAE73D005246ABE70F
:100938003D0021005246A7E73B0C9C462A04120CB6
:100948002B0C1400604665463F043F0C7C43424331
:100958005D437B43270C9B18FF18BA4203D98023B9
:100968005B029C46654424043A04240C1219930142
:100978005C1EA3413F0C920E7D191A43AD0115432D
:100988002B0104D501235E466A081D401543320039
:100998007F32002A25DD6B0704D00F232B40042B60
:1009A80000D004352B0103D53200274B80321D407F
:1009B800FE2A94DC0124A801400AD2B20C406FE759
:1009C8008020C003074207D0054205D128434002D2
:1009D800400A4446FF2263E738434002400AFF22A8
:1009E8005EE70124A31A1B2B05DD0C400022002022
:1009F80056E75E46CBE72A002020DA40C31A9D401E
:100A08002B005D1EAB4113435A0704D00F221A4036
:100A1800042A00D004335A0104D5012401220C40D1
:100A280000203DE701249B01580A0C40002237E7CB
:100A380080200124C00328434002400A0C40FF22C2
:100A48002EE7C04624110008FFFFFFF7F0B54F4618
:100A5800D64646464400C0B5C20F47024802400A7F
:100A6800844666467B0A4800C90F9A46240E15003C
:100A7800DB00000E8946F600FF2800D18FE0012137
:100A88004F464F403900914266D0221A002A00DCB6
:100A98009DE000283DD1002E00D18BE0511E002999
:100AA80000D0B5E001249B1B5A0144D59B019F0946
:100AB800380000F0CDF905388740844200DD96E023
:100AC800041B3A0020200134E240041BA7403B00ED
:100AD8005F1EBB41002413435A0704D00F221A405B
:100AE800042A00D004335A0127D50134FF2C00D141
:100AF80079E001229B015B0AE4B22A405B02E4052B
:100B0800580AD207204310431CBC90469946A24677
:100B1800F0BDFF2CE0D08021C9040E431B2A7BDCEA
:100B280031002020D140821A9640721E96410E4311
:100B38009B1B5A01BAD45A07D0D10122DF082A4098
:100B4800FF2C33D1002F00D1A8E08023DB033B43E7
:100B58005B025B0AFF24D1E7211A00294CDD00283B
:100B68002AD0FF2CB8D08020C00406431B2900DD02
:100B7800AFE030002027C840791A8E40711E8E41A0
:100B880006439B195901D6D50134FF2C00D185E0C5
:100B980001227A491A405B080B4013439CE7002E58
:100BA80000D070E76BE73B1EC5D100227B025B0AD1
:100BB800E4B2A3E714008FE7002E4DD0481E0028AA
:100BC80057D19B1901245A01B5D50224E0E7002A20
:100BD80025D1621CD2B2012A72DD9F1B7A0135D55C
:100BE800F71A0D0064E7012200232A4086E73B003C
:100BF800634A241A13406FE700296CD1611CC8B2FC
:100C080001284EDDFF2949D09B195B080C0063E7DA
:100C1800FF2A41D00A0081E701269B1B89E7002CA7
:100C28001CD0FF2821D08024E404524223431B2AED
:100C380000DD96E01C002025D440AA1A93405A1ED5
:100C480093412343F31A04000D002DE7002F00D031
:100C58002EE700220024A9E70C003DE7002B58D01E
:100C6800D243002AEED0FF28E1D13300FF240D0043
:100C780032E7FF2910D0010078E7002B6ED0FF245F
:100C8800002E00D128E780225146D203114203D01A
:100C98006146114200D13300FF241DE7FF240023E1
:100CA8002CE7002CE9D1002B63D0002E00D113E7EC
:100CB8009B195A0100D43EE7314A0C0013400BE758
:100CC800002C1ED1002B2FD1002E4FD033000D0049
:100CD80002E7012655E7002C1FD1002B43D0C9435A
:100CE80000290BD0FF2839D01B2944DC1C00202701
:100CF800CC40791A8B40591E8B4123439B19040021
:100D080040E7002B1AD1002E24D180270022FF03B0
:100D18001BE7330004000D00DEE6FF281ED0802408
:100D2800E40449422343DFE7002E00D1D4E69F1BA9
:100D38007A0100D437E7F31A0D00CDE6FF24002E20
:100D480000D1C9E680225046D2031042A4D06046A2
:100D58001042A1D133000D00FF24BDE63300FF246B
:100D6800BAE601236EE733000400B5E60027002247
:100D78001CE73300B0E60123C0E7C046FFFFFF7D54
:100D8800FFFFFFFB41024300C20F490A1B0E002070
:100D98007E2B0DDD9D2B0CDC802000040143952B60
:100DA8000ADC9620C31AD9404842002A00D108001C
:100DB8007047034BD018FBE7963B9940F4E7C046D1
:100DC800FFFFFF7F10B5041E27D000F041F89E23D7
:100DD8001B1A962B0ADC9622D21A94406402640AE3
:100DE800DBB26402DB05600A184310BD992B17DCDF
:100DF8009922D21A002A27DD94402200134C14406D
:100E0800510704D00F210A40042A00D0043462019B
:100E180012D4A401640ADBB2E3E700230024E0E76C
:100E2800B9222100D21A91400A00511E8A41052197
:100E3800091ACC401443DBE7044B1C409F23A40150
:100E48001B1A640ADBB2CCE72200D7E7FFFFFFFBDF
:100E58001C2101231B04984201D3000C10391B0AE2
:100E6800984201D3000A08391B09984201D30009A6
:100E7800043902A2105C40187047C04604030202FD
:0C0E88000101010100000000000000005A
:040E9400F8B5C046A7
:040E9800F8B5C046A3
:100E9C00020304050607000100000000000000002A
:100EAC000000000000000000000000000000000036
:100EBC00010001000100010001000100010001001E
:100ECC000200020002000200020002000300030004
:100EDC0003000300040004000400040005000500E6
:100EEC0005000500060006000600070007000700C5
:100EFC000800080008000900090009000A000A009F
:100F0C000B000B000B000C000C000D000D000E0074
:100F1C000E000F000F001000100011001100120045
:100F2C001200130013001400140015001600160014
:100F3C00170017001800190019001A001A001B00DE
:100F4C001C001C001D001E001E001F0020002100A4
:100F5C002100220023002400240025002600270065
:100F6C002700280029002A002B002B002C002D0024
:100F7C002E002F00300031003100320033003400DD
:100F8C00350036003700380039003A003B003C0091
:100F9C003D003E003F003F00410042004300440042
:100FAC00450046004700480049004A004B004C00F1
:100FBC004D004E004F00510052005300540055009C
:100FCC005600570059005A005B005C005D005F0042
:100FDC0060006100620064006500660067006900E3
:100FEC006A006B006C006E006F0070007200730082
:100FFC0074007600770079007A007B007D007E001B
:10100C0080008100820084008500870088008A00AF
:10101C008B008D008E009000910093009400960040
:10102C00970099009A009C009D009F00A100A200CF
:10103C00A400A500A700A900AA00AC00AE00AF0058
:10104C00B100B300B400B600B800B900BB00BD00DD
:10105C00BF00C000C200C400C600C700C900CB005E
:10106C00CD00CE00D000D200D400D600D800D900DC
:10107C00DB00DD00DF00E100E300E500E700E80055
:10108C00EA00EC00EE00F000F200F400F600F800CC
:10109C00FA00FC00FE000001C005000890050008E5
:1010AC00A2050008E4040008A20500088605000853
:1010BC00A2050008E404000890050008900500084B
:1010CC0086050008E4040008EC040008EC040008A1
:1010DC00EC040008A805000890050008900500081D
:1010EC006405000848060008640500088605000829
:1010FC0064050008480600089005000890050008E3
:10110C008605000848060008EC040008EC040008FA
:10111C00EC0400085206000840090008900800087A
:10112C00900800088E0800083209000832090008EF
:10113C00280900088E080008320900082809000850
:10114C00320900088E080008380900083809000820
:08115C0038090008C809000869
:0411640089000000FE
:0400000508000329C3
:00000001FF
