:020000040800F2
:08000000000C00203D01000886
:100008000123424AF0B5516BC0200B435363A02330
:10001800DB0519683E4C8143080080210143082014
:100028001960596881435960196A3A480840A02103
:100038000902014319628023116C5B010B43002103
:100048001364354B236000200A003F278446334B56
:1000580016003D009009C0B23E409543012846D0A5
:10006800002840D0022847D0100018305832C0B2BB
:10007800D2B2BF2800D80200294803339842E7D1FA
:100088000020264B02261A5C0823264DA768374213
:10009800FCD057B2002F34DA7C27013B5200DBB288
:1000A8002F70D2B2002BF1D101301828E9D11E4AA5
:1000B8001E48506093601300802252021868104254
:1000C800FCD000291FD00139C9B280260B22002597
:1000D80017487602013A002AB5D058609D601F681B
:1000E8003742FCD0F6E71E705D709870BCE760463A
:1000F8001D7058709E70B7E760465E7018709D70EE
:10010800B2E76027C9E7BF21DFE7C0460010024019
:1001180000300140FF0FFFFF4CC30000000000202B
:10012800180000200C30014010E000E0571A0000D1
:10013800BF5D0000184885460F4B104A10489A606A
:1001480000231049104C1A188A4211D30F4B10493A
:10015800186880234A681B02120C120403431343D5
:1001680005224B600B4B1A6023234B63FFF748FFB4
:10017800E55804331560E6E700ED00E000000008EC
:100188000000002000000020AC010008100FFF1F35
:0C0198000010024010E000E0000C00200D
:0401A400F8B5C046A4
:0401A800F8B5C046A0
:040000050800013DB1
:00000001FF
